{
  "contractName": "eVote",
  "abi": [
    {
      "inputs": [
        {
          "internalType": "address",
          "name": "_verifierMerkleTreeAddress",
          "type": "address"
        },
        {
          "internalType": "address",
          "name": "_verifierZKSNARKAddress",
          "type": "address"
        },
        {
          "internalType": "bytes32",
          "name": "_usersMerkleTreeRoot",
          "type": "bytes32"
        },
        {
          "internalType": "uint256",
          "name": "_registrationBlockInterval",
          "type": "uint256"
        },
        {
          "internalType": "uint256",
          "name": "_votingBlockInterval",
          "type": "uint256"
        },
        {
          "internalType": "uint256",
          "name": "_tallyBlockInterval",
          "type": "uint256"
        }
      ],
      "stateMutability": "payable",
      "type": "constructor",
      "payable": true
    },
    {
      "inputs": [],
      "name": "admin",
      "outputs": [
        {
          "internalType": "address",
          "name": "",
          "type": "address"
        }
      ],
      "stateMutability": "view",
      "type": "function",
      "constant": true
    },
    {
      "inputs": [
        {
          "internalType": "address",
          "name": "",
          "type": "address"
        },
        {
          "internalType": "uint256",
          "name": "",
          "type": "uint256"
        }
      ],
      "name": "encryptedVotes",
      "outputs": [
        {
          "internalType": "uint256",
          "name": "",
          "type": "uint256"
        }
      ],
      "stateMutability": "view",
      "type": "function",
      "constant": true
    },
    {
      "inputs": [
        {
          "internalType": "uint256",
          "name": "",
          "type": "uint256"
        }
      ],
      "name": "encryptedVotesXsign",
      "outputs": [
        {
          "internalType": "uint256",
          "name": "",
          "type": "uint256"
        }
      ],
      "stateMutability": "view",
      "type": "function",
      "constant": true
    },
    {
      "inputs": [],
      "name": "finishRegistartionBlockNumber",
      "outputs": [
        {
          "internalType": "uint256",
          "name": "",
          "type": "uint256"
        }
      ],
      "stateMutability": "view",
      "type": "function",
      "constant": true
    },
    {
      "inputs": [],
      "name": "finishTallyBlockNumber",
      "outputs": [
        {
          "internalType": "uint256",
          "name": "",
          "type": "uint256"
        }
      ],
      "stateMutability": "view",
      "type": "function",
      "constant": true
    },
    {
      "inputs": [],
      "name": "finishVotingBlockNumber",
      "outputs": [
        {
          "internalType": "uint256",
          "name": "",
          "type": "uint256"
        }
      ],
      "stateMutability": "view",
      "type": "function",
      "constant": true
    },
    {
      "inputs": [],
      "name": "nVoters",
      "outputs": [
        {
          "internalType": "uint256",
          "name": "",
          "type": "uint256"
        }
      ],
      "stateMutability": "view",
      "type": "function",
      "constant": true
    },
    {
      "inputs": [],
      "name": "pm1d2",
      "outputs": [
        {
          "internalType": "uint256",
          "name": "",
          "type": "uint256"
        }
      ],
      "stateMutability": "view",
      "type": "function",
      "constant": true
    },
    {
      "inputs": [
        {
          "internalType": "address",
          "name": "",
          "type": "address"
        },
        {
          "internalType": "uint256",
          "name": "",
          "type": "uint256"
        }
      ],
      "name": "publicKeys",
      "outputs": [
        {
          "internalType": "uint256",
          "name": "",
          "type": "uint256"
        }
      ],
      "stateMutability": "view",
      "type": "function",
      "constant": true
    },
    {
      "inputs": [
        {
          "internalType": "address",
          "name": "",
          "type": "address"
        }
      ],
      "name": "refunded",
      "outputs": [
        {
          "internalType": "bool",
          "name": "",
          "type": "bool"
        }
      ],
      "stateMutability": "view",
      "type": "function",
      "constant": true
    },
    {
      "inputs": [],
      "name": "usersMerkleTreeRoot",
      "outputs": [
        {
          "internalType": "bytes32",
          "name": "",
          "type": "bytes32"
        }
      ],
      "stateMutability": "view",
      "type": "function",
      "constant": true
    },
    {
      "inputs": [],
      "name": "voteResult",
      "outputs": [
        {
          "internalType": "uint256",
          "name": "",
          "type": "uint256"
        }
      ],
      "stateMutability": "view",
      "type": "function",
      "constant": true
    },
    {
      "inputs": [
        {
          "internalType": "uint256",
          "name": "",
          "type": "uint256"
        }
      ],
      "name": "voters",
      "outputs": [
        {
          "internalType": "address",
          "name": "",
          "type": "address"
        }
      ],
      "stateMutability": "view",
      "type": "function",
      "constant": true
    },
    {
      "inputs": [
        {
          "internalType": "uint256[]",
          "name": "_pubKey",
          "type": "uint256[]"
        },
        {
          "internalType": "uint256[2]",
          "name": "proof_a",
          "type": "uint256[2]"
        },
        {
          "internalType": "uint256[2][2]",
          "name": "proof_b",
          "type": "uint256[2][2]"
        },
        {
          "internalType": "uint256[2]",
          "name": "proof_c",
          "type": "uint256[2]"
        },
        {
          "internalType": "bytes32[]",
          "name": "_merkleProof",
          "type": "bytes32[]"
        }
      ],
      "name": "register",
      "outputs": [],
      "stateMutability": "payable",
      "type": "function",
      "payable": true
    },
    {
      "inputs": [
        {
          "internalType": "uint256[2]",
          "name": "_encryptedVote",
          "type": "uint256[2]"
        },
        {
          "internalType": "uint256",
          "name": "_Idx",
          "type": "uint256"
        },
        {
          "internalType": "uint256[2]",
          "name": "proof_a",
          "type": "uint256[2]"
        },
        {
          "internalType": "uint256[2][2]",
          "name": "proof_b",
          "type": "uint256[2][2]"
        },
        {
          "internalType": "uint256[2]",
          "name": "proof_c",
          "type": "uint256[2]"
        }
      ],
      "name": "castVote",
      "outputs": [],
      "stateMutability": "nonpayable",
      "type": "function"
    },
    {
      "inputs": [
        {
          "internalType": "uint256",
          "name": "_result",
          "type": "uint256"
        },
        {
          "internalType": "uint256[2]",
          "name": "proof_a",
          "type": "uint256[2]"
        },
        {
          "internalType": "uint256[2][2]",
          "name": "proof_b",
          "type": "uint256[2][2]"
        },
        {
          "internalType": "uint256[2]",
          "name": "proof_c",
          "type": "uint256[2]"
        }
      ],
      "name": "setTally",
      "outputs": [],
      "stateMutability": "nonpayable",
      "type": "function"
    },
    {
      "inputs": [],
      "name": "refund",
      "outputs": [],
      "stateMutability": "nonpayable",
      "type": "function"
    }
  ],
  "bytecode": "0x60a0604052600060809081526200001b90600c906001620000be565b506040516200183d3803806200183d8339810160408190526200003e9162000147565b60008054600160a060020a03808916600160a060020a0319928316179092556001805492881692821692909217909155600280549091163317905560078490556200008a8343620001a4565b60088190556200009c908390620001a4565b6009819055620000ae908290620001a4565b600a5550620001e4945050505050565b82805482825590600052602060002090810192821562000101579160200282015b8281111562000101578251829060ff16905591602001919060010190620000df565b506200010f92915062000113565b5090565b5b808211156200010f576000815560010162000114565b8051600160a060020a03811681146200014257600080fd5b919050565b60008060008060008060c087890312156200016157600080fd5b6200016c876200012a565b95506200017c602088016200012a565b945060408701519350606087015192506080870151915060a087015190509295509295509295565b60008219821115620001df577f4e487b7100000000000000000000000000000000000000000000000000000000600052601160045260246000fd5b500190565b61164980620001f46000396000f3fe6080604052600436106100fa576000357c010000000000000000000000000000000000000000000000000000000090048063869dd738116100a2578063869dd738146101de5780638a671dbb146101fe578063942743e3146102135780639d0c03e514610233578063c033a49014610267578063d3ca9aec146102a7578063da58c7d9146102bd578063ebb3c38c146102f5578063f851a4401461030b57600080fd5b80623259ea146100ff5780631078255514610128578063260b618d1461014857806345568da814610168578063590e1ae31461017e5780635ac2938c146101955780635e8336bd146101a85780637bca2e63146101be575b600080fd5b34801561010b57600080fd5b50610115600b5481565b6040519081526020015b60405180910390f35b34801561013457600080fd5b50610115610143366004611033565b61032b565b34801561015457600080fd5b50610115610163366004611033565b610350565b34801561017457600080fd5b5061011560075481565b34801561018a57600080fd5b5061019361036c565b005b6101936101a33660046111fb565b610473565b3480156101b457600080fd5b5061011560085481565b3480156101ca57600080fd5b506101156101d93660046112eb565b610819565b3480156101ea57600080fd5b506101936101f9366004611304565b61083a565b34801561020a57600080fd5b50610115600381565b34801561021f57600080fd5b5061019361022e366004611355565b610bc7565b34801561023f57600080fd5b506101157f183227397098d014dc2822db40c0ac2e9419f4243cdcb848a1f0fac9f800000081565b34801561027357600080fd5b506102976102823660046113b9565b60056020526000908152604090205460ff1681565b604051901515815260200161011f565b3480156102b357600080fd5b5061011560095481565b3480156102c957600080fd5b506102dd6102d83660046112eb565b610f9a565b604051600160a060020a03909116815260200161011f565b34801561030157600080fd5b50610115600a5481565b34801561031757600080fd5b506002546102dd90600160a060020a031681565b6003602052816000526040600020816002811061034757600080fd5b01549150829050565b6004602052816000526040600020816002811061034757600080fd5b600a544310156103c65760405160e560020a62461bcd02815260206004820152601d60248201527f496e76616c6964207265636c61696d206465706f73697420706861736500000060448201526064015b60405180910390fd5b3360009081526005602052604090205460ff161580156104085750336000908152600460205260409020541515806104085750600254600160a060020a031633145b6104575760405160e560020a62461bcd02815260206004820152600f60248201527f496c6c6567616c207265636c61696d000000000000000000000000000000000060448201526064016103bd565b336000908152600560205260409020805460ff19166001179055565b60085443106104ec5760405160e560020a62461bcd028152602060048201526024808201527f526567697374726174696f6e20706861736520697320616c726561647920636c60448201527f6f7365640000000000000000000000000000000000000000000000000000000060648201526084016103bd565b60015460405160e260020a6319d0dcd3028152600160a060020a0390911690636743734c90610528908790879087908b906000906004016114b0565b602060405180830381865afa158015610545573d6000803e3d6000fd5b505050506040513d601f19601f820116820180604052508101906105699190611500565b6105b85760405160e560020a62461bcd02815260206004820152601060248201527f496e76616c696420444c2070726f6f660000000000000000000000000000000060448201526064016103bd565b336000908152600360205260409020541580156105e5575033600090815260036020526040902060010154155b156107aa576006546003906105fb90600161153b565b111561064c5760405160e560020a62461bcd02815260206004820152601f60248201527f4d6178206e756d626572206f6620766f7465727320697320726561636865640060448201526064016103bd565b60005460075460408051336c010000000000000000000000000260208083019190915282516014818403018152603483019384905280519101207f4bc935d700000000000000000000000000000000000000000000000000000000909252600160a060020a0390931692634bc935d7926106ca928692603801611553565b602060405180830381865afa1580156106e7573d6000803e3d6000fd5b505050506040513d601f19601f8201168201806040525081019061070b9190611500565b61075a5760405160e560020a62461bcd02815260206004820152601460248201527f496e76616c6964204d65726b6c652070726f6f6600000000000000000000000060448201526064016103bd565b600680546001810182556000919091527ff652222313e28459528d920b65115c16c04f3efc82aaedc97be59f3f377c0d3f01805473ffffffffffffffffffffffffffffffffffffffff1916331790555b6040518060400160405280866000815181106107c8576107c86113db565b60200260200101518152602001866001815181106107e8576107e86113db565b602090810291909101810151909152336000908152600390915260409020610811916002610fc4565b505050505050565b600c818154811061082957600080fd5b600091825260209091200154905081565b600254600160a060020a031633146108bd5760405160e560020a62461bcd02815260206004820152602360248201527f4f6e6c792061646d696e2063616e20736574207468652074616c6c792072657360448201527f756c74000000000000000000000000000000000000000000000000000000000060648201526084016103bd565b60095443101580156108d05750600a5443105b61091f5760405160e560020a62461bcd02815260206004820181905260248201527f54616c6c79696e6720706861736520697320616c726561647920636c6f73656460448201526064016103bd565b600c5460009061093090600361153b565b61093b90600161153b565b67ffffffffffffffff8111156109535761095361105d565b60405190808252806020026020018201604052801561097c578160200160208202803683370190505b5090508481600081518110610993576109936113db565b6020908102919091010152600160005b600c54811015610a0557600c81815481106109c0576109c06113db565b90600052602060002001548383836109d8919061153b565b815181106109e8576109e86113db565b6020908102919091010152806109fd816115a0565b9150506109a3565b50600c54610a13908261153b565b905060005b600654811015610a99576004600060068381548110610a3957610a396113db565b6000918252602080832090910154600160a060020a0316835282019290925260400190206001015483610a6c848461153b565b81518110610a7c57610a7c6113db565b602090810291909101015280610a91816115a0565b915050610a18565b5060065460031115610aee576006545b6003811015610aec57600183610abf848461153b565b81518110610acf57610acf6113db565b602090810291909101015280610ae4816115a0565b915050610aa9565b505b60015460405160e260020a6319d0dcd3028152600160a060020a0390911690636743734c90610b2a9088908890889088906002906004016114b0565b602060405180830381865afa158015610b47573d6000803e3d6000fd5b505050506040513d601f19601f82011682018060405250810190610b6b9190611500565b610bba5760405160e560020a62461bcd02815260206004820152601760248201527f496e76616c69642054616c6c79696e6720526573756c7400000000000000000060448201526064016103bd565b505050600b929092555050565b6008544310158015610bda575060095443105b610c295760405160e560020a62461bcd02815260206004820152601e60248201527f566f74696e6720706861736520697320616c726561647920636c6f736564000060448201526064016103bd565b60068481548110610c3c57610c3c6113db565b600091825260209091200154600160a060020a03163314610ca25760405160e560020a62461bcd02815260206004820152601260248201527f556e7265676973746572656420766f746572000000000000000000000000000060448201526064016103bd565b6000610caf60038061153b565b67ffffffffffffffff811115610cc757610cc761105d565b604051908082528060200260200182016040528015610cf0578160200160208202803683370190505b509050856000602002015181600081518110610d0e57610d0e6113db565b6020908102919091010152856001602002015181600181518110610d3457610d346113db565b60200260200101818152505060005b600654811015610dc5576003600060068381548110610d6457610d646113db565b6000918252602080832090910154600160a060020a0316835282019290925260400190206001015482610d9883600261153b565b81518110610da857610da86113db565b602090810291909101015280610dbd816115a0565b915050610d43565b5060065460031115610e1b576006545b6003811015610e1957600182610dec83600261153b565b81518110610dfc57610dfc6113db565b602090810291909101015280610e11816115a0565b915050610dd5565b505b848160018351610e2b91906115bb565b81518110610e3b57610e3b6113db565b60209081029190910101526001805460405160e260020a6319d0dcd3028152600160a060020a0390911691636743734c91610e81918891889188918891906004016114b0565b602060405180830381865afa158015610e9e573d6000803e3d6000fd5b505050506040513d601f19601f82011682018060405250810190610ec29190611500565b610f115760405160e560020a62461bcd02815260206004820152601660248201527f496e76616c696420656e6372797074656420766f74650000000000000000000060448201526064016103bd565b336000908152600460205260409020610f2c90876002610fc4565b5085517f183227397098d014dc2822db40c0ac2e9419f4243cdcb848a1f0fac9f80000001161081157610f6060fd866115eb565b60020a600c610f7060fd886115ff565b81548110610f8057610f806113db565b600091825260209091200180549091189055505050505050565b60068181548110610faa57600080fd5b600091825260209091200154600160a060020a0316905081565b8260028101928215610ff2579160200282015b82811115610ff2578251825591602001919060010190610fd7565b50610ffe929150611002565b5090565b5b80821115610ffe5760008155600101611003565b8035600160a060020a038116811461102e57600080fd5b919050565b6000806040838503121561104657600080fd5b61104f83611017565b946020939093013593505050565b60e060020a634e487b7102600052604160045260246000fd5b6040805190810167ffffffffffffffff811182821017156110995761109961105d565b60405290565b604051601f8201601f1916810167ffffffffffffffff811182821017156110c8576110c861105d565b604052919050565b600067ffffffffffffffff8211156110ea576110ea61105d565b5060209081020190565b600082601f83011261110557600080fd5b61110d611076565b80604084018581111561111f57600080fd5b845b81811015611139578035845260209384019301611121565b509095945050505050565b600082601f83011261115557600080fd5b61115d611076565b80608084018581111561116f57600080fd5b845b818110156111395761118387826110f4565b8452602090930192604001611171565b600082601f8301126111a457600080fd5b813560206111b96111b4836110d0565b61109f565b828152918102840181019181810190868411156111d557600080fd5b8286015b848110156111f057803583529183019183016111d9565b509695505050505050565b6000806000806000610140868803121561121457600080fd5b853567ffffffffffffffff8082111561122c57600080fd5b818801915088601f83011261124057600080fd5b813560206112506111b4836110d0565b8281529181028401810191818101908c84111561126c57600080fd5b948201945b8386101561128a57853582529482019490820190611271565b995061129a90508b8b83016110f4565b975050506112ab8960608a01611144565b94506112ba8960e08a016110f4565b93506101208801359150808211156112d157600080fd5b506112de88828901611193565b9150509295509295909350565b6000602082840312156112fd57600080fd5b5035919050565b600080600080610120858703121561131b57600080fd5b8435935061132c86602087016110f4565b925061133b8660608701611144565b915061134a8660e087016110f4565b905092959194509250565b6000806000806000610160868803121561136e57600080fd5b61137887876110f4565b94506040860135935061138e87606088016110f4565b925061139d8760a08801611144565b91506113ad8761012088016110f4565b90509295509295909350565b6000602082840312156113cb57600080fd5b6113d482611017565b9392505050565b60e060020a634e487b7102600052603260045260246000fd5b8060005b60028110156114175781518452602093840193909101906001016113f8565b50505050565b806000805b6002808210611431575061146e565b835186845b83811015611454578251825260209283019290910190600101611436565b505050604095909501945060209290920191600101611422565b5050505050565b600081518084526020808501945080840160005b838110156114a557815187529582019590820190600101611489565b509495945050505050565b60006101406114bf83896113f4565b6114cc604084018861141d565b6114d960c08401876113f4565b806101008401526114ec81840186611475565b915050826101208301529695505050505050565b60006020828403121561151257600080fd5b815180151581146113d457600080fd5b60e060020a634e487b7102600052601160045260246000fd5b6000821982111561154e5761154e611522565b500190565b606080825284519082018190526000906020906080840190828801845b8281101561158c57815184529284019290840190600101611570565b505050908301949094525060400152919050565b60006000198214156115b4576115b4611522565b5060010190565b6000828210156115cd576115cd611522565b500390565b60e060020a634e487b7102600052601260045260246000fd5b6000826115fa576115fa6115d2565b500690565b60008261160e5761160e6115d2565b50049056fea2646970667358221220175a891bfbe017d479e06ec93f733c45adadc05327cda3937c7cd9619b17b82964736f6c634300080a0033",
  "immutableReferences": {},
  "source": "// SPDX-License-Identifier: UNLICENSED\npragma solidity^0.8.0;\nimport './verifier_MerkleTree.sol';\nimport './verifier_zkSNARK.sol';\n\ncontract eVote {\n    verifierMerkleTree vMerkleProof;\n    verifierZKSNARK vzkSNARK;\n\n    address public admin;\n    mapping(address=> uint[2]) public publicKeys;\n    mapping(address=> uint[2]) public encryptedVotes;\n    mapping(address=> bool) public refunded;\n    address[] public voters;\n    uint public constant nVoters = 3;\n    bytes32 public usersMerkleTreeRoot;\n    uint public finishRegistartionBlockNumber;\n    uint public finishVotingBlockNumber;\n    uint public finishTallyBlockNumber;\n    uint public voteResult;\n    uint[] public encryptedVotesXsign = [0];\n    uint public constant pm1d2 = 10944121435919637611123202872628637544274182200208017171849102093287904247808;\n    \n    constructor(\n            address _verifierMerkleTreeAddress, \n            address _verifierZKSNARKAddress, \n            bytes32 _usersMerkleTreeRoot, \n            uint _registrationBlockInterval, \n            uint _votingBlockInterval, \n            uint _tallyBlockInterval\n        ) payable {\n        vMerkleProof = verifierMerkleTree(_verifierMerkleTreeAddress);\n        vzkSNARK = verifierZKSNARK(_verifierZKSNARKAddress);\n        admin = msg.sender;\n        usersMerkleTreeRoot = _usersMerkleTreeRoot;\n        finishRegistartionBlockNumber = block.number+_registrationBlockInterval;\n        finishVotingBlockNumber = finishRegistartionBlockNumber + _votingBlockInterval;\n        finishTallyBlockNumber = finishVotingBlockNumber+_tallyBlockInterval;\n    }\n\n    function register(\n            uint[] memory _pubKey, \n            uint[2] memory proof_a, \n            uint[2][2] memory proof_b, \n            uint[2] memory proof_c, \n            bytes32[] memory _merkleProof\n        ) public payable{\n        require(block.number<finishRegistartionBlockNumber,\"Registration phase is already closed\");\n        require(vzkSNARK.verifyProof(proof_a, proof_b, proof_c, _pubKey, 0),\"Invalid DL proof\");\n        if (publicKeys[msg.sender][0] == 0 && publicKeys[msg.sender][1] == 0){\n            require(voters.length + 1 <= nVoters, \"Max number of voters is reached\");\n            require(vMerkleProof.verifyProof(_merkleProof, usersMerkleTreeRoot, keccak256(abi.encodePacked(msg.sender))), \"Invalid Merkle proof\");\n            voters.push(msg.sender);\n        }\n        publicKeys[msg.sender] = [_pubKey[0], _pubKey[1]];\n    }\n    function castVote(\n            uint[2] memory _encryptedVote, \n            uint _Idx, \n            uint[2] memory proof_a, \n            uint[2][2] memory proof_b, \n            uint[2] memory proof_c\n        ) public {\n        require(block.number >= finishRegistartionBlockNumber && block.number < finishVotingBlockNumber, \"Voting phase is already closed\");\n        require( msg.sender == voters[_Idx], \"Unregistered voter\");\n        uint[] memory _publicSignals = new uint[](nVoters + 3);\n        _publicSignals[0] = _encryptedVote[0];\n        _publicSignals[1] = _encryptedVote[1];\n        for(uint i=0; i<voters.length; i++){\n            _publicSignals[i + 2] = publicKeys[voters[i]][1];\n        }\n        if (voters.length < nVoters){\n            for(uint i=voters.length; i<nVoters; i++){\n                _publicSignals[i + 2] = 1;\n            }\n        }\n        _publicSignals[_publicSignals.length-1] = _Idx;\n        \n        require(vzkSNARK.verifyProof(proof_a, proof_b, proof_c, _publicSignals, 1),\"Invalid encrypted vote\");\n\n        encryptedVotes[msg.sender] = _encryptedVote;\n\n        if (_encryptedVote[0] >= pm1d2){\n            encryptedVotesXsign[_Idx/253] ^= 1<<(_Idx%253);\n        }\n    }\n    function setTally(\n            uint _result, \n            uint[2] memory proof_a, \n            uint[2][2] memory proof_b, \n            uint[2] memory proof_c\n        ) public {\n        require(msg.sender==admin,\"Only admin can set the tally result\");\n        require(block.number >= finishVotingBlockNumber && block.number < finishTallyBlockNumber, \"Tallying phase is already closed\");\n        \n        uint[] memory _publicSignals = new uint[](nVoters + encryptedVotesXsign.length + 1);\n        _publicSignals[0] = _result;\n        uint offset = 1;\n        for(uint i=0; i<encryptedVotesXsign.length;i++){\n            _publicSignals[i + offset] = encryptedVotesXsign[i];\n        }\n        offset += encryptedVotesXsign.length;\n        for(uint i=0; i<voters.length; i++){\n            _publicSignals[i + offset] = encryptedVotes[voters[i]][1];\n        }\n        if (voters.length < nVoters){\n            for(uint i=voters.length; i<nVoters; i++){\n                _publicSignals[i + offset] = 1;\n            }\n        }        \n        require(vzkSNARK.verifyProof(proof_a, proof_b, proof_c, _publicSignals, 2),\"Invalid Tallying Result\");\n        voteResult = _result;\n    }\n    function refund() public{\n        require(block.number >= finishTallyBlockNumber, \"Invalid reclaim deposit phase\");\n        require(refunded[msg.sender] == false && (encryptedVotes[msg.sender][0] != 0 || msg.sender == admin),\"Illegal reclaim\");\n        refunded[msg.sender] = true;\n    }\n    \n}\n",
  "sourcePath": "/Users/stanbar/code/zkVote/SmartContract/contracts/eVote.sol",
  "compiler": {
    "name": "solc",
    "version": "0.8.10+commit.fc410830.Emscripten.clang"
  },
  "schemaVersion": "3.4.16",
  "updatedAt": "2023-11-18T12:30:33.898Z",
  "networkType": "ethereum",
  "devdoc": {
    "kind": "dev",
    "methods": {},
    "version": 1
  },
  "userdoc": {
    "kind": "user",
    "methods": {},
    "version": 1
  }
}