{
  "contractName": "eVote",
  "abi": [
    {
      "inputs": [
        {
          "internalType": "address",
          "name": "_verifierMerkleTreeAddress",
          "type": "address"
        },
        {
          "internalType": "address",
          "name": "_verifierZKSNARKAddress",
          "type": "address"
        },
        {
          "internalType": "bytes32",
          "name": "_usersMerkleTreeRoot",
          "type": "bytes32"
        },
        {
          "internalType": "uint256",
          "name": "_registrationBlockInterval",
          "type": "uint256"
        },
        {
          "internalType": "uint256",
          "name": "_votingBlockInterval",
          "type": "uint256"
        },
        {
          "internalType": "uint256",
          "name": "_tallyBlockInterval",
          "type": "uint256"
        }
      ],
      "stateMutability": "payable",
      "type": "constructor",
      "payable": true
    },
    {
      "inputs": [],
      "name": "admin",
      "outputs": [
        {
          "internalType": "address",
          "name": "",
          "type": "address"
        }
      ],
      "stateMutability": "view",
      "type": "function",
      "constant": true
    },
    {
      "inputs": [
        {
          "internalType": "address",
          "name": "",
          "type": "address"
        },
        {
          "internalType": "uint256",
          "name": "",
          "type": "uint256"
        }
      ],
      "name": "encryptedVotes",
      "outputs": [
        {
          "internalType": "uint256",
          "name": "",
          "type": "uint256"
        }
      ],
      "stateMutability": "view",
      "type": "function",
      "constant": true
    },
    {
      "inputs": [
        {
          "internalType": "uint256",
          "name": "",
          "type": "uint256"
        }
      ],
      "name": "encryptedVotesXsign",
      "outputs": [
        {
          "internalType": "uint256",
          "name": "",
          "type": "uint256"
        }
      ],
      "stateMutability": "view",
      "type": "function",
      "constant": true
    },
    {
      "inputs": [],
      "name": "finishRegistartionBlockNumber",
      "outputs": [
        {
          "internalType": "uint256",
          "name": "",
          "type": "uint256"
        }
      ],
      "stateMutability": "view",
      "type": "function",
      "constant": true
    },
    {
      "inputs": [],
      "name": "finishTallyBlockNumber",
      "outputs": [
        {
          "internalType": "uint256",
          "name": "",
          "type": "uint256"
        }
      ],
      "stateMutability": "view",
      "type": "function",
      "constant": true
    },
    {
      "inputs": [],
      "name": "finishVotingBlockNumber",
      "outputs": [
        {
          "internalType": "uint256",
          "name": "",
          "type": "uint256"
        }
      ],
      "stateMutability": "view",
      "type": "function",
      "constant": true
    },
    {
      "inputs": [
        {
          "internalType": "bytes32",
          "name": "message",
          "type": "bytes32"
        }
      ],
      "name": "formatAndHashMessage",
      "outputs": [
        {
          "internalType": "bytes32",
          "name": "hashedMessage",
          "type": "bytes32"
        }
      ],
      "stateMutability": "pure",
      "type": "function",
      "constant": true
    },
    {
      "inputs": [
        {
          "internalType": "address",
          "name": "sender",
          "type": "address"
        },
        {
          "internalType": "uint256[]",
          "name": "_pubKey",
          "type": "uint256[]"
        },
        {
          "internalType": "uint256[2]",
          "name": "proof_a",
          "type": "uint256[2]"
        },
        {
          "internalType": "uint256[2][2]",
          "name": "proof_b",
          "type": "uint256[2][2]"
        },
        {
          "internalType": "uint256[2]",
          "name": "proof_c",
          "type": "uint256[2]"
        }
      ],
      "name": "hashRegisterArguments",
      "outputs": [
        {
          "internalType": "bytes32",
          "name": "hashedMessage",
          "type": "bytes32"
        }
      ],
      "stateMutability": "pure",
      "type": "function",
      "constant": true
    },
    {
      "inputs": [
        {
          "internalType": "address",
          "name": "sender",
          "type": "address"
        },
        {
          "internalType": "uint256[2]",
          "name": "_encryptedVote",
          "type": "uint256[2]"
        },
        {
          "internalType": "uint256[2]",
          "name": "proof_a",
          "type": "uint256[2]"
        },
        {
          "internalType": "uint256[2][2]",
          "name": "proof_b",
          "type": "uint256[2][2]"
        },
        {
          "internalType": "uint256[2]",
          "name": "proof_c",
          "type": "uint256[2]"
        },
        {
          "internalType": "uint256",
          "name": "_Idx",
          "type": "uint256"
        }
      ],
      "name": "hashVoteArguments",
      "outputs": [
        {
          "internalType": "bytes32",
          "name": "hashedMessage",
          "type": "bytes32"
        }
      ],
      "stateMutability": "pure",
      "type": "function",
      "constant": true
    },
    {
      "inputs": [],
      "name": "nVoters",
      "outputs": [
        {
          "internalType": "uint256",
          "name": "",
          "type": "uint256"
        }
      ],
      "stateMutability": "view",
      "type": "function",
      "constant": true
    },
    {
      "inputs": [],
      "name": "pm1d2",
      "outputs": [
        {
          "internalType": "uint256",
          "name": "",
          "type": "uint256"
        }
      ],
      "stateMutability": "view",
      "type": "function",
      "constant": true
    },
    {
      "inputs": [
        {
          "internalType": "address",
          "name": "",
          "type": "address"
        },
        {
          "internalType": "uint256",
          "name": "",
          "type": "uint256"
        }
      ],
      "name": "publicKeys",
      "outputs": [
        {
          "internalType": "uint256",
          "name": "",
          "type": "uint256"
        }
      ],
      "stateMutability": "view",
      "type": "function",
      "constant": true
    },
    {
      "inputs": [
        {
          "internalType": "bytes32",
          "name": "hashedMessage",
          "type": "bytes32"
        },
        {
          "internalType": "uint8",
          "name": "v",
          "type": "uint8"
        },
        {
          "internalType": "bytes32",
          "name": "r",
          "type": "bytes32"
        },
        {
          "internalType": "bytes32",
          "name": "s",
          "type": "bytes32"
        }
      ],
      "name": "recoverSigner",
      "outputs": [
        {
          "internalType": "address",
          "name": "recovered",
          "type": "address"
        }
      ],
      "stateMutability": "pure",
      "type": "function",
      "constant": true
    },
    {
      "inputs": [
        {
          "internalType": "address",
          "name": "",
          "type": "address"
        }
      ],
      "name": "refunded",
      "outputs": [
        {
          "internalType": "bool",
          "name": "",
          "type": "bool"
        }
      ],
      "stateMutability": "view",
      "type": "function",
      "constant": true
    },
    {
      "inputs": [],
      "name": "usersMerkleTreeRoot",
      "outputs": [
        {
          "internalType": "bytes32",
          "name": "",
          "type": "bytes32"
        }
      ],
      "stateMutability": "view",
      "type": "function",
      "constant": true
    },
    {
      "inputs": [],
      "name": "voteResult",
      "outputs": [
        {
          "internalType": "uint256",
          "name": "",
          "type": "uint256"
        }
      ],
      "stateMutability": "view",
      "type": "function",
      "constant": true
    },
    {
      "inputs": [
        {
          "internalType": "uint256",
          "name": "",
          "type": "uint256"
        }
      ],
      "name": "voters",
      "outputs": [
        {
          "internalType": "address",
          "name": "",
          "type": "address"
        }
      ],
      "stateMutability": "view",
      "type": "function",
      "constant": true
    },
    {
      "inputs": [
        {
          "internalType": "address",
          "name": "sender",
          "type": "address"
        },
        {
          "internalType": "uint8",
          "name": "v",
          "type": "uint8"
        },
        {
          "internalType": "uint256",
          "name": "r",
          "type": "uint256"
        },
        {
          "internalType": "uint256",
          "name": "s",
          "type": "uint256"
        },
        {
          "internalType": "uint256[]",
          "name": "_pubKey",
          "type": "uint256[]"
        },
        {
          "internalType": "uint256[2]",
          "name": "proof_a",
          "type": "uint256[2]"
        },
        {
          "internalType": "uint256[2][2]",
          "name": "proof_b",
          "type": "uint256[2][2]"
        },
        {
          "internalType": "uint256[2]",
          "name": "proof_c",
          "type": "uint256[2]"
        },
        {
          "internalType": "bytes32[]",
          "name": "_merkleProof",
          "type": "bytes32[]"
        }
      ],
      "name": "register",
      "outputs": [],
      "stateMutability": "payable",
      "type": "function",
      "payable": true
    },
    {
      "inputs": [
        {
          "internalType": "address",
          "name": "sender",
          "type": "address"
        },
        {
          "internalType": "uint8",
          "name": "v",
          "type": "uint8"
        },
        {
          "internalType": "uint256",
          "name": "r",
          "type": "uint256"
        },
        {
          "internalType": "uint256",
          "name": "s",
          "type": "uint256"
        },
        {
          "internalType": "uint256[2]",
          "name": "_encryptedVote",
          "type": "uint256[2]"
        },
        {
          "internalType": "uint256",
          "name": "_Idx",
          "type": "uint256"
        },
        {
          "internalType": "uint256[2]",
          "name": "proof_a",
          "type": "uint256[2]"
        },
        {
          "internalType": "uint256[2][2]",
          "name": "proof_b",
          "type": "uint256[2][2]"
        },
        {
          "internalType": "uint256[2]",
          "name": "proof_c",
          "type": "uint256[2]"
        }
      ],
      "name": "castVote",
      "outputs": [],
      "stateMutability": "nonpayable",
      "type": "function"
    },
    {
      "inputs": [
        {
          "internalType": "uint256",
          "name": "_result",
          "type": "uint256"
        },
        {
          "internalType": "uint256[2]",
          "name": "proof_a",
          "type": "uint256[2]"
        },
        {
          "internalType": "uint256[2][2]",
          "name": "proof_b",
          "type": "uint256[2][2]"
        },
        {
          "internalType": "uint256[2]",
          "name": "proof_c",
          "type": "uint256[2]"
        }
      ],
      "name": "setTally",
      "outputs": [],
      "stateMutability": "nonpayable",
      "type": "function"
    },
    {
      "inputs": [
        {
          "internalType": "address",
          "name": "sender",
          "type": "address"
        },
        {
          "internalType": "uint8",
          "name": "v",
          "type": "uint8"
        },
        {
          "internalType": "uint256",
          "name": "r",
          "type": "uint256"
        },
        {
          "internalType": "uint256",
          "name": "s",
          "type": "uint256"
        },
        {
          "internalType": "uint256[]",
          "name": "_pubKey",
          "type": "uint256[]"
        },
        {
          "internalType": "uint256[2]",
          "name": "proof_a",
          "type": "uint256[2]"
        },
        {
          "internalType": "uint256[2][2]",
          "name": "proof_b",
          "type": "uint256[2][2]"
        },
        {
          "internalType": "uint256[2]",
          "name": "proof_c",
          "type": "uint256[2]"
        }
      ],
      "name": "checkRegistering",
      "outputs": [
        {
          "internalType": "bool",
          "name": "",
          "type": "bool"
        }
      ],
      "stateMutability": "pure",
      "type": "function",
      "constant": true
    },
    {
      "inputs": [
        {
          "internalType": "address",
          "name": "sender",
          "type": "address"
        },
        {
          "internalType": "uint8",
          "name": "v",
          "type": "uint8"
        },
        {
          "internalType": "uint256",
          "name": "r",
          "type": "uint256"
        },
        {
          "internalType": "uint256",
          "name": "s",
          "type": "uint256"
        },
        {
          "internalType": "uint256[2]",
          "name": "_encryptedVote",
          "type": "uint256[2]"
        },
        {
          "internalType": "uint256",
          "name": "_Idx",
          "type": "uint256"
        },
        {
          "internalType": "uint256[2]",
          "name": "proof_a",
          "type": "uint256[2]"
        },
        {
          "internalType": "uint256[2][2]",
          "name": "proof_b",
          "type": "uint256[2][2]"
        },
        {
          "internalType": "uint256[2]",
          "name": "proof_c",
          "type": "uint256[2]"
        }
      ],
      "name": "checkVoting",
      "outputs": [
        {
          "internalType": "bool",
          "name": "",
          "type": "bool"
        }
      ],
      "stateMutability": "pure",
      "type": "function",
      "constant": true
    },
    {
      "inputs": [
        {
          "internalType": "address",
          "name": "sender",
          "type": "address"
        },
        {
          "internalType": "uint256[]",
          "name": "_pubKey",
          "type": "uint256[]"
        },
        {
          "internalType": "uint256[2]",
          "name": "proof_a",
          "type": "uint256[2]"
        },
        {
          "internalType": "uint256[2][2]",
          "name": "proof_b",
          "type": "uint256[2][2]"
        },
        {
          "internalType": "uint256[2]",
          "name": "proof_c",
          "type": "uint256[2]"
        }
      ],
      "name": "registerHash",
      "outputs": [
        {
          "internalType": "bytes32",
          "name": "inputMessageHash",
          "type": "bytes32"
        }
      ],
      "stateMutability": "pure",
      "type": "function",
      "constant": true
    },
    {
      "inputs": [
        {
          "internalType": "address",
          "name": "sender",
          "type": "address"
        },
        {
          "internalType": "uint256[2]",
          "name": "_encryptedVote",
          "type": "uint256[2]"
        },
        {
          "internalType": "uint256",
          "name": "_Idx",
          "type": "uint256"
        },
        {
          "internalType": "uint256[2]",
          "name": "proof_a",
          "type": "uint256[2]"
        },
        {
          "internalType": "uint256[2][2]",
          "name": "proof_b",
          "type": "uint256[2][2]"
        },
        {
          "internalType": "uint256[2]",
          "name": "proof_c",
          "type": "uint256[2]"
        }
      ],
      "name": "votingHash",
      "outputs": [
        {
          "internalType": "bytes32",
          "name": "inputMessageHash",
          "type": "bytes32"
        }
      ],
      "stateMutability": "pure",
      "type": "function",
      "constant": true
    }
  ],
  "bytecode": "0x60a0604052600060809081526200001b906007906001620000be565b5060405162001e6638038062001e668339810160408190526200003e9162000147565b60008054600160a060020a03808916600160a060020a0319928316179092556001805492881692821692909217909155600280549091163317905560088490556200008a8343620001a4565b60098190556200009c908390620001a4565b600a819055620000ae908290620001a4565b600b5550620001e4945050505050565b82805482825590600052602060002090810192821562000101579160200282015b8281111562000101578251829060ff16905591602001919060010190620000df565b506200010f92915062000113565b5090565b5b808211156200010f576000815560010162000114565b8051600160a060020a03811681146200014257600080fd5b919050565b60008060008060008060c087890312156200016157600080fd5b6200016c876200012a565b95506200017c602088016200012a565b945060408701519350606087015192506080870151915060a087015190509295509295509295565b60008219821115620001df577f4e487b7100000000000000000000000000000000000000000000000000000000600052601160045260246000fd5b500190565b611c7280620001f46000396000f3fe60806040526004361061014e5760003560e060020a900480638a671dbb116100ba578063d3d4175511610073578063d3d41755146103a9578063d45167d0146103c9578063da58c7d914610401578063ebb3c38c14610421578063f53ecb5314610437578063f851a4401461044a57600080fd5b80638a671dbb146102da57806391cde3de146102ef5780639d0c03e51461030f578063c033a49014610343578063c80939f014610373578063d3ca9aec1461039357600080fd5b806345568da81161010c57806345568da81461021e57806346ffabbc146102345780635e8336bd146102645780637bca2e631461027a5780637e4fbc981461029a578063869dd738146102ba57600080fd5b80623259ea14610153578063107825551461017c578063260b618d1461019c57806327011c3e146101bc5780632e991fb7146101dc57806337cdb366146101fe575b600080fd5b34801561015f57600080fd5b50610169600c5481565b6040519081526020015b60405180910390f35b34801561018857600080fd5b50610169610197366004611383565b61046a565b3480156101a857600080fd5b506101696101b7366004611383565b61048f565b3480156101c857600080fd5b506101696101d736600461154b565b6104ab565b3480156101e857600080fd5b506101fc6101f73660046115e1565b610599565b005b34801561020a57600080fd5b50610169610219366004611679565b610932565b34801561022a57600080fd5b5061016960085481565b34801561024057600080fd5b5061025461024f3660046116ed565b6109c5565b6040519015158152602001610173565b34801561027057600080fd5b5061016960095481565b34801561028657600080fd5b50610169610295366004611795565b610a14565b3480156102a657600080fd5b506102546102b53660046115e1565b610a35565b3480156102c657600080fd5b506101fc6102d53660046117ae565b610a86565b3480156102e657600080fd5b50610169600381565b3480156102fb57600080fd5b5061016961030a366004611795565b610db1565b34801561031b57600080fd5b506101697f183227397098d014dc2822db40c0ac2e9419f4243cdcb848a1f0fac9f800000081565b34801561034f57600080fd5b5061025461035e3660046117ff565b60056020526000908152604090205460ff1681565b34801561037f57600080fd5b5061016961038e366004611821565b610de4565b34801561039f57600080fd5b50610169600a5481565b3480156103b557600080fd5b506101696103c436600461154b565b610dff565b3480156103d557600080fd5b506103e96103e4366004611894565b610e18565b604051600160a060020a039091168152602001610173565b34801561040d57600080fd5b506103e961041c366004611795565b610e2f565b34801561042d57600080fd5b50610169600b5481565b6101fc6104453660046118cf565b610e59565b34801561045657600080fd5b506002546103e990600160a060020a031681565b6003602052816000526040600020816002811061048657600080fd5b01549150829050565b6004602052816000526040600020816002811061048657600080fd5b600080866c01000000000000000000000000026bffffffffffffffffffffffff191690506000866000815181106104e4576104e46119f1565b60200260200101519050600087600181518110610503576105036119f1565b60200260200101519050600087600060028110610522576105226119f1565b60209081029190910151988101518851805190830151998301518051908401518a519a909401516105e098895261060097909752610620959095526106409a909a526106605261068098909852506106a0959095526106c0949094526106e094909452506107005261072052610740902092915050565b600684815481106105ac576105ac6119f1565b600091825260209091200154600160a060020a038a811691161461061a5760405160e560020a62461bcd02815260206004820152601260248201527f556e7265676973746572656420766f746572000000000000000000000000000060448201526064015b60405180910390fd5b61062b898989898989898989610a35565b506000610639600380611a23565b67ffffffffffffffff811115610651576106516113ad565b60405190808252806020026020018201604052801561067a578160200160208202803683370190505b509050856000602002015181600081518110610698576106986119f1565b60209081029190910101528560016020020151816001815181106106be576106be6119f1565b60200260200101818152505060005b60065481101561074f5760036000600683815481106106ee576106ee6119f1565b6000918252602080832090910154600160a060020a0316835282019290925260400190206001015482610722836002611a23565b81518110610732576107326119f1565b60209081029190910101528061074781611a3b565b9150506106cd565b50600654600311156107a5576006545b60038110156107a357600182610776836002611a23565b81518110610786576107866119f1565b60209081029190910101528061079b81611a3b565b91505061075f565b505b8481600183516107b59190611a56565b815181106107c5576107c56119f1565b60209081029190910101526001805460405160e260020a6319d0dcd3028152600160a060020a0390911691636743734c9161080b91889188918891889190600401611b23565b602060405180830381865afa158015610828573d6000803e3d6000fd5b505050506040513d601f19601f8201168201806040525081019061084c9190611b73565b61089b5760405160e560020a62461bcd02815260206004820152601660248201527f496e76616c696420656e6372797074656420766f7465000000000000000000006044820152606401610611565b600160a060020a038a1660009081526004602052604090206108bf90876002611314565b5085517f183227397098d014dc2822db40c0ac2e9419f4243cdcb848a1f0fac9f800000011610926576108f360fd86611bae565b60020a600761090360fd88611bc2565b81548110610913576109136119f1565b6000918252602090912001805490911890555b50505050505050505050565b8451602095860151855195870151855180519089015196890151805199015195516c010000000000000000000000009a909a026bffffffffffffffffffffffff19166105e090815261060094909452610620929092526106409690965261066095909552610680949094526106a0929092526106c0939093526106e0929092526107009290925261072052610760902090565b6000806109d58a878787876104ab565b905060006109e282610db1565b90506109f0818b8b8b610e18565b600160a060020a03168b600160a060020a0316149250505098975050505050505050565b60078181548110610a2457600080fd5b600091825260209091200154905081565b600080610a468b888787878b610932565b90506000610a5382610db1565b9050610a61818c8c8c610e18565b600160a060020a03168c600160a060020a031614925050509998505050505050505050565b600254600160a060020a03163314610b095760405160e560020a62461bcd02815260206004820152602360248201527f4f6e6c792061646d696e2063616e20736574207468652074616c6c792072657360448201527f756c7400000000000000000000000000000000000000000000000000000000006064820152608401610611565b600754600090610b1a906003611a23565b610b25906001611a23565b67ffffffffffffffff811115610b3d57610b3d6113ad565b604051908082528060200260200182016040528015610b66578160200160208202803683370190505b5090508481600081518110610b7d57610b7d6119f1565b6020908102919091010152600160005b600754811015610bef5760078181548110610baa57610baa6119f1565b9060005260206000200154838383610bc29190611a23565b81518110610bd257610bd26119f1565b602090810291909101015280610be781611a3b565b915050610b8d565b50600754610bfd9082611a23565b905060005b600654811015610c83576004600060068381548110610c2357610c236119f1565b6000918252602080832090910154600160a060020a0316835282019290925260400190206001015483610c568484611a23565b81518110610c6657610c666119f1565b602090810291909101015280610c7b81611a3b565b915050610c02565b5060065460031115610cd8576006545b6003811015610cd657600183610ca98484611a23565b81518110610cb957610cb96119f1565b602090810291909101015280610cce81611a3b565b915050610c93565b505b60015460405160e260020a6319d0dcd3028152600160a060020a0390911690636743734c90610d14908890889088908890600290600401611b23565b602060405180830381865afa158015610d31573d6000803e3d6000fd5b505050506040513d601f19601f82011682018060405250810190610d559190611b73565b610da45760405160e560020a62461bcd02815260206004820152601760248201527f496e76616c69642054616c6c79696e6720526573756c740000000000000000006044820152606401610611565b505050600c929092555050565b7f19457468657265756d205369676e6564204d6573736167653a0a3332000000006000908152601c91909152603c902090565b6000610df487878686868a610932565b979650505050505050565b6000610e0e86868686866104ab565b9695505050505050565b6000610e26858585856111a3565b95945050505050565b60068181548110610e3f57600080fd5b600091825260209091200154600160a060020a0316905081565b60015460405160e260020a6319d0dcd3028152600160a060020a0390911690636743734c90610e95908790879087908b90600090600401611b23565b602060405180830381865afa158015610eb2573d6000803e3d6000fd5b505050506040513d601f19601f82011682018060405250810190610ed69190611b73565b610f255760405160e560020a62461bcd02815260206004820152601060248201527f496e76616c696420444c2070726f6f66000000000000000000000000000000006044820152606401610611565b610f3589898989898989896109c5565b50600160a060020a038916600090815260036020526040902054158015610f755750600160a060020a038916600090815260036020526040902060010154155b1561113357600654600390610f8b906001611a23565b1115610fdc5760405160e560020a62461bcd02815260206004820152601f60248201527f4d6178206e756d626572206f6620766f746572732069732072656163686564006044820152606401610611565b600054600854604051600160a060020a038c81166c0100000000000000000000000002602083015290921691634bc935d7918491603401604051602081830303815290604052805190602001206040518463ffffffff1660e060020a02815260040161104a93929190611bd6565b602060405180830381865afa158015611067573d6000803e3d6000fd5b505050506040513d601f19601f8201168201806040525081019061108b9190611b73565b6110da5760405160e560020a62461bcd02815260206004820152601460248201527f496e76616c6964204d65726b6c652070726f6f660000000000000000000000006044820152606401610611565b600680546001810182556000919091527ff652222313e28459528d920b65115c16c04f3efc82aaedc97be59f3f377c0d3f01805473ffffffffffffffffffffffffffffffffffffffff1916600160a060020a038b161790555b604051806040016040528086600081518110611151576111516119f1565b6020026020010151815260200186600181518110611171576111716119f1565b602090810291909101810151909152600160a060020a038b166000908152600390915260409020610926916002611314565b6000806000806111b5888888886111d1565b9250925092506111c582826112a0565b50909695505050505050565b600080807f7fffffffffffffffffffffffffffffff5d576e7357a4501ddfe92f46681b20a084111561120c5750600091506003905082611296565b604080516000808252602082018084528a905260ff891692820192909252606081018790526080810186905260019060a0016020604051602081039080840390855afa158015611260573d6000803e3d6000fd5b5050604051601f190151915050600160a060020a03811661128c57506000925060019150829050611296565b9250600091508190505b9450945094915050565b60008260038111156112b4576112b4611c23565b14156112be575050565b60018260038111156112d2576112d2611c23565b14156112dc575050565b60028260038111156112f0576112f0611c23565b14156112fa575050565b600382600381111561130e5761130e611c23565b50505050565b8260028101928215611342579160200282015b82811115611342578251825591602001919060010190611327565b5061134e929150611352565b5090565b5b8082111561134e5760008155600101611353565b8035600160a060020a038116811461137e57600080fd5b919050565b6000806040838503121561139657600080fd5b61139f83611367565b946020939093013593505050565b60e060020a634e487b7102600052604160045260246000fd5b6040805190810167ffffffffffffffff811182821017156113e9576113e96113ad565b60405290565b604051601f8201601f1916810167ffffffffffffffff81118282101715611418576114186113ad565b604052919050565b600067ffffffffffffffff82111561143a5761143a6113ad565b5060209081020190565b600082601f83011261145557600080fd5b8135602061146a61146583611420565b6113ef565b8281529181028401810191818101908684111561148657600080fd5b8286015b848110156114a1578035835291830191830161148a565b509695505050505050565b600082601f8301126114bd57600080fd5b6114c56113c6565b8060408401858111156114d757600080fd5b845b818110156114f15780358452602093840193016114d9565b509095945050505050565b600082601f83011261150d57600080fd5b6115156113c6565b80608084018581111561152757600080fd5b845b818110156114f15761153b87826114ac565b8452602090930192604001611529565b6000806000806000610140868803121561156457600080fd5b61156d86611367565b9450602086013567ffffffffffffffff81111561158957600080fd5b61159588828901611444565b9450506115a587604088016114ac565b92506115b487608088016114fc565b91506115c48761010088016114ac565b90509295509295909350565b803560ff8116811461137e57600080fd5b60008060008060008060008060006101e08a8c03121561160057600080fd5b6116098a611367565b985061161760208b016115d0565b975060408a0135965060608a013595506116348b60808c016114ac565b945060c08a0135935061164a8b60e08c016114ac565b925061165a8b6101208c016114fc565b915061166a8b6101a08c016114ac565b90509295985092959850929598565b600080600080600080610180878903121561169357600080fd5b61169c87611367565b95506116ab88602089016114ac565b94506116ba88606089016114ac565b93506116c98860a089016114fc565b92506116d98861012089016114ac565b915061016087013590509295509295509295565b6000806000806000806000806101a0898b03121561170a57600080fd5b61171389611367565b975061172160208a016115d0565b96506040890135955060608901359450608089013567ffffffffffffffff81111561174b57600080fd5b6117578b828c01611444565b9450506117678a60a08b016114ac565b92506117768a60e08b016114fc565b91506117868a6101608b016114ac565b90509295985092959890939650565b6000602082840312156117a757600080fd5b5035919050565b60008060008061012085870312156117c557600080fd5b843593506117d686602087016114ac565b92506117e586606087016114fc565b91506117f48660e087016114ac565b905092959194509250565b60006020828403121561181157600080fd5b61181a82611367565b9392505050565b600080600080600080610180878903121561183b57600080fd5b61184487611367565b955061185388602089016114ac565b94506060870135935061186988608089016114ac565b92506118788860c089016114fc565b91506118888861014089016114ac565b90509295509295509295565b600080600080608085870312156118aa57600080fd5b843593506118ba602086016115d0565b93969395505050506040820135916060013590565b60008060008060008060008060006101c08a8c0312156118ee57600080fd5b6118f78a611367565b98506020611906818c016115d0565b985060408b0135975060608b0135965060808b013567ffffffffffffffff8082111561193157600080fd5b61193d8e838f01611444565b975061194c8e60a08f016114ac565b965061195b8e60e08f016114fc565b955061196b8e6101608f016114ac565b94506101a08d013591508082111561198257600080fd5b508b01601f81018d1361199457600080fd5b80356119a261146582611420565b8181529083028201830190838101908f8311156119be57600080fd5b928401925b828410156119dc578335825292840192908401906119c3565b80955050505050509295985092959850929598565b60e060020a634e487b7102600052603260045260246000fd5b60e060020a634e487b7102600052601160045260246000fd5b60008219821115611a3657611a36611a0a565b500190565b6000600019821415611a4f57611a4f611a0a565b5060010190565b600082821015611a6857611a68611a0a565b500390565b8060005b600281101561130e578151845260209384019390910190600101611a71565b806000805b6002808210611aa45750611ae1565b835186845b83811015611ac7578251825260209283019290910190600101611aa9565b505050604095909501945060209290920191600101611a95565b5050505050565b600081518084526020808501945080840160005b83811015611b1857815187529582019590820190600101611afc565b509495945050505050565b6000610140611b328389611a6d565b611b3f6040840188611a90565b611b4c60c0840187611a6d565b80610100840152611b5f81840186611ae8565b915050826101208301529695505050505050565b600060208284031215611b8557600080fd5b8151801515811461181a57600080fd5b60e060020a634e487b7102600052601260045260246000fd5b600082611bbd57611bbd611b95565b500690565b600082611bd157611bd1611b95565b500490565b606080825284519082018190526000906020906080840190828801845b82811015611c0f57815184529284019290840190600101611bf3565b505050908301949094525060400152919050565b60e060020a634e487b7102600052602160045260246000fdfea264697066735822122031009d6f7268d77d16776d134148cd252d8b8c660756b3a285b25eac2623a22964736f6c634300080a0033",
  "immutableReferences": {},
  "source": "// SPDX-License-Identifier: UNLICENSED\npragma solidity ^0.8.0;\nimport \"./verifier_MerkleTree.sol\";\nimport \"./verifier_zkSNARK.sol\";\nimport \"./HashingHelper.sol\";\n\ncontract eVote is HashingHelper {\n    verifierMerkleTree vMerkleProof;\n    verifierZKSNARK vzkSNARK;\n\n    address public admin;\n    mapping(address => uint[2]) public publicKeys;\n    mapping(address => uint[2]) public encryptedVotes;\n    mapping(address => bool) public refunded;\n    address[] public voters;\n    uint public constant nVoters = 3;\n    uint[] public encryptedVotesXsign = [0];\n    bytes32 public usersMerkleTreeRoot;\n    uint public finishRegistartionBlockNumber;\n    uint public finishVotingBlockNumber;\n    uint public finishTallyBlockNumber;\n    uint public voteResult;\n    uint public constant pm1d2 =\n        10944121435919637611123202872628637544274182200208017171849102093287904247808;\n\n    constructor(\n        address _verifierMerkleTreeAddress,\n        address _verifierZKSNARKAddress,\n        bytes32 _usersMerkleTreeRoot,\n        uint _registrationBlockInterval,\n        uint _votingBlockInterval,\n        uint _tallyBlockInterval\n    ) payable {\n        vMerkleProof = verifierMerkleTree(_verifierMerkleTreeAddress);\n        vzkSNARK = verifierZKSNARK(_verifierZKSNARKAddress);\n        admin = msg.sender;\n        usersMerkleTreeRoot = _usersMerkleTreeRoot;\n        finishRegistartionBlockNumber =\n            block.number +\n            _registrationBlockInterval;\n        finishVotingBlockNumber =\n            finishRegistartionBlockNumber +\n            _votingBlockInterval;\n        finishTallyBlockNumber = finishVotingBlockNumber + _tallyBlockInterval;\n    }\n\n    function register(\n        address sender,\n        uint8 v,\n        uint r,\n        uint s,\n        uint[] memory _pubKey,\n        uint[2] memory proof_a,\n        uint[2][2] memory proof_b,\n        uint[2] memory proof_c,\n        bytes32[] memory _merkleProof\n    ) public payable {\n        // require(\n        //     block.number < finishRegistartionBlockNumber,\n        //     \"Registration phase is already closed\"\n        // );\n        require(\n            vzkSNARK.verifyProof(proof_a, proof_b, proof_c, _pubKey, 0),\n            \"Invalid DL proof\"\n        );\n        checkRegistering(sender, v, r, s, _pubKey, proof_a, proof_b, proof_c);\n\n        if (publicKeys[sender][0] == 0 && publicKeys[sender][1] == 0) {\n            require(\n                voters.length + 1 <= nVoters,\n                \"Max number of voters is reached\"\n            );\n            require(\n                vMerkleProof.verifyProof(\n                    _merkleProof,\n                    usersMerkleTreeRoot,\n                    keccak256(abi.encodePacked(sender))\n                ),\n                \"Invalid Merkle proof\"\n            );\n            voters.push(sender);\n        }\n        publicKeys[sender] = [_pubKey[0], _pubKey[1]];\n    }\n\n    function castVote(\n        address sender,\n        uint8 v,\n        uint r,\n        uint s,\n        uint[2] memory _encryptedVote,\n        uint _Idx,\n        uint[2] memory proof_a,\n        uint[2][2] memory proof_b,\n        uint[2] memory proof_c\n    ) public {\n        // require(\n        //     block.number >= finishRegistartionBlockNumber &&\n        //         block.number < finishVotingBlockNumber,\n        //     \"Voting phase is already closed\"\n        // );\n        require(sender == voters[_Idx], \"Unregistered voter\");\n\n        checkVoting(\n            sender,\n            v,\n            r,\n            s,\n            _encryptedVote,\n            _Idx,\n            proof_a,\n            proof_b,\n            proof_c\n        );\n\n        uint[] memory _publicSignals = new uint[](nVoters + 3);\n        _publicSignals[0] = _encryptedVote[0];\n        _publicSignals[1] = _encryptedVote[1];\n        for (uint i = 0; i < voters.length; i++) {\n            _publicSignals[i + 2] = publicKeys[voters[i]][1];\n        }\n        if (voters.length < nVoters) {\n            for (uint i = voters.length; i < nVoters; i++) {\n                _publicSignals[i + 2] = 1;\n            }\n        }\n        _publicSignals[_publicSignals.length - 1] = _Idx;\n\n        require(\n            vzkSNARK.verifyProof(proof_a, proof_b, proof_c, _publicSignals, 1),\n            \"Invalid encrypted vote\"\n        );\n\n        encryptedVotes[sender] = _encryptedVote;\n\n        if (_encryptedVote[0] >= pm1d2) {\n            encryptedVotesXsign[_Idx / 253] ^= 1 << (_Idx % 253);\n        }\n    }\n\n    function setTally(\n        uint _result,\n        uint[2] memory proof_a,\n        uint[2][2] memory proof_b,\n        uint[2] memory proof_c\n    ) public {\n        require(msg.sender == admin, \"Only admin can set the tally result\");\n        // require(\n        //     block.number >= finishVotingBlockNumber &&\n        //         block.number < finishTallyBlockNumber,\n        //     \"Tallying phase is already closed\"\n        // );\n\n        uint[] memory _publicSignals = new uint[](\n            nVoters + encryptedVotesXsign.length + 1\n        );\n        _publicSignals[0] = _result;\n        uint offset = 1;\n        for (uint i = 0; i < encryptedVotesXsign.length; i++) {\n            _publicSignals[i + offset] = encryptedVotesXsign[i];\n        }\n        offset += encryptedVotesXsign.length;\n        for (uint i = 0; i < voters.length; i++) {\n            _publicSignals[i + offset] = encryptedVotes[voters[i]][1];\n        }\n        if (voters.length < nVoters) {\n            for (uint i = voters.length; i < nVoters; i++) {\n                _publicSignals[i + offset] = 1;\n            }\n        }\n        require(\n            vzkSNARK.verifyProof(proof_a, proof_b, proof_c, _publicSignals, 2),\n            \"Invalid Tallying Result\"\n        );\n        voteResult = _result;\n    }\n\n    function checkRegistering(\n        address sender,\n        uint8 v,\n        uint r,\n        uint s,\n        uint[] memory _pubKey,\n        uint[2] memory proof_a,\n        uint[2][2] memory proof_b,\n        uint[2] memory proof_c\n    ) public pure returns (bool) {\n        bytes32 inputMessageHash = hashRegisterArguments(\n            sender,\n            _pubKey,\n            proof_a,\n            proof_b,\n            proof_c\n        );\n\n        bytes32 formattedMessageHash = formatAndHashMessage(inputMessageHash);\n        return sender == recoverSigner(formattedMessageHash, v, bytes32(r), bytes32(s));\n    }\n\n    function checkVoting(\n        address sender,\n        uint8 v,\n        uint r,\n        uint s,\n        uint[2] memory _encryptedVote,\n        uint _Idx,\n        uint[2] memory proof_a,\n        uint[2][2] memory proof_b,\n        uint[2] memory proof_c\n    ) public pure returns (bool) {\n        bytes32 inputMessageHash = hashVoteArguments(\n            sender,\n            _encryptedVote,\n            proof_a,\n            proof_b,\n            proof_c,\n            _Idx\n        );\n        bytes32 formattedMessageHash = formatAndHashMessage(inputMessageHash);\n        return sender == recoverSigner(formattedMessageHash, v, bytes32(r), bytes32(s));\n    }\n\n    function registerHash(\n        address sender,\n        uint[] memory _pubKey,\n        uint[2] memory proof_a,\n        uint[2][2] memory proof_b,\n        uint[2] memory proof_c\n    ) public pure returns (bytes32 inputMessageHash) {\n        inputMessageHash = hashRegisterArguments(\n            sender,\n            _pubKey,\n            proof_a,\n            proof_b,\n            proof_c\n        );\n    }\n\n    function votingHash(\n        address sender,\n        uint[2] memory _encryptedVote,\n        uint _Idx,\n        uint[2] memory proof_a,\n        uint[2][2] memory proof_b,\n        uint[2] memory proof_c\n    ) public pure returns (bytes32 inputMessageHash) {\n        inputMessageHash = hashVoteArguments(\n            sender,\n            _encryptedVote,\n            proof_a,\n            proof_b,\n            proof_c,\n            _Idx\n        );\n    }\n}\n",
  "sourcePath": "/Users/stanbar/code/zkVote/SmartContract/contracts/eVote.sol",
  "compiler": {
    "name": "solc",
    "version": "0.8.10+commit.fc410830.Emscripten.clang"
  },
  "schemaVersion": "3.4.16",
  "updatedAt": "2023-11-19T00:04:48.857Z",
  "networkType": "ethereum",
  "devdoc": {
    "kind": "dev",
    "methods": {},
    "version": 1
  },
  "userdoc": {
    "kind": "user",
    "methods": {},
    "version": 1
  }
}