{
  "contractName": "HashingHelper",
  "abi": [
    {
      "inputs": [
        {
          "internalType": "bytes32",
          "name": "message",
          "type": "bytes32"
        }
      ],
      "name": "formatAndHashMessage",
      "outputs": [
        {
          "internalType": "bytes32",
          "name": "hashedMessage",
          "type": "bytes32"
        }
      ],
      "stateMutability": "pure",
      "type": "function"
    },
    {
      "inputs": [
        {
          "internalType": "address",
          "name": "sender",
          "type": "address"
        },
        {
          "internalType": "uint256[]",
          "name": "_pubKey",
          "type": "uint256[]"
        },
        {
          "internalType": "uint256[2]",
          "name": "proof_a",
          "type": "uint256[2]"
        },
        {
          "internalType": "uint256[2][2]",
          "name": "proof_b",
          "type": "uint256[2][2]"
        },
        {
          "internalType": "uint256[2]",
          "name": "proof_c",
          "type": "uint256[2]"
        }
      ],
      "name": "hashRegisterArguments",
      "outputs": [
        {
          "internalType": "bytes32",
          "name": "hashedMessage",
          "type": "bytes32"
        }
      ],
      "stateMutability": "pure",
      "type": "function"
    },
    {
      "inputs": [
        {
          "internalType": "address",
          "name": "sender",
          "type": "address"
        },
        {
          "internalType": "uint256[2]",
          "name": "_encryptedVote",
          "type": "uint256[2]"
        },
        {
          "internalType": "uint256[2]",
          "name": "proof_a",
          "type": "uint256[2]"
        },
        {
          "internalType": "uint256[2][2]",
          "name": "proof_b",
          "type": "uint256[2][2]"
        },
        {
          "internalType": "uint256[2]",
          "name": "proof_c",
          "type": "uint256[2]"
        },
        {
          "internalType": "uint256",
          "name": "_Idx",
          "type": "uint256"
        }
      ],
      "name": "hashVoteArguments",
      "outputs": [
        {
          "internalType": "bytes32",
          "name": "hashedMessage",
          "type": "bytes32"
        }
      ],
      "stateMutability": "pure",
      "type": "function"
    },
    {
      "inputs": [
        {
          "internalType": "bytes32",
          "name": "hashedMessage",
          "type": "bytes32"
        },
        {
          "internalType": "uint8",
          "name": "v",
          "type": "uint8"
        },
        {
          "internalType": "bytes32",
          "name": "r",
          "type": "bytes32"
        },
        {
          "internalType": "bytes32",
          "name": "s",
          "type": "bytes32"
        }
      ],
      "name": "recoverSigner",
      "outputs": [
        {
          "internalType": "address",
          "name": "recovered",
          "type": "address"
        }
      ],
      "stateMutability": "pure",
      "type": "function"
    }
  ],
  "bytecode": "0x608060405234801561001057600080fd5b50610792806100206000396000f3fe608060405234801561001057600080fd5b5060043610610068577c0100000000000000000000000000000000000000000000000000000000600035046327011c3e811461006d57806337cdb3661461009357806391cde3de14610134578063d45167d014610175575b600080fd5b61008061007b36600461056b565b6101ad565b6040519081526020015b60405180910390f35b6100806100a136600461065a565b8451602095860151855195870151855180519089015196890151805199015195516c010000000000000000000000009a909a026bffffffffffffffffffffffff19166105e090815261060094909452610620929092526106409690965261066095909552610680949094526106a0929092526106c0939093526106e0929092526107009290925261072052610760902090565b6100806101423660046106ce565b7f19457468657265756d205369676e6564204d6573736167653a0a3332000000006000908152601c91909152603c902090565b6101886101833660046106e7565b61029b565b60405173ffffffffffffffffffffffffffffffffffffffff909116815260200161008a565b600080866c01000000000000000000000000026bffffffffffffffffffffffff191690506000866000815181106101e6576101e661072a565b602002602001015190506000876001815181106102055761020561072a565b602002602001015190506000876000600281106102245761022461072a565b60209081029190910151988101518851805190830151998301518051908401518a519a909401516105e098895261060097909752610620959095526106409a909a526106605261068098909852506106a0959095526106c0949094526106e094909452506107005261072052610740902092915050565b60006102a9858585856102b2565b95945050505050565b6000806000806102c4888888886102e0565b9250925092506102d482826103bc565b50909695505050505050565b600080807f7fffffffffffffffffffffffffffffff5d576e7357a4501ddfe92f46681b20a084111561031b57506000915060039050826103b2565b604080516000808252602082018084528a905260ff891692820192909252606081018790526080810186905260019060a0016020604051602081039080840390855afa15801561036f573d6000803e3d6000fd5b5050604051601f19015191505073ffffffffffffffffffffffffffffffffffffffff81166103a8575060009250600191508290506103b2565b9250600091508190505b9450945094915050565b60008260038111156103d0576103d0610743565b14156103da575050565b60018260038111156103ee576103ee610743565b14156103f8575050565b600282600381111561040c5761040c610743565b1415610416575050565b600382600381111561042a5761042a610743565b50505050565b803573ffffffffffffffffffffffffffffffffffffffff8116811461045457600080fd5b919050565b60e060020a634e487b7102600052604160045260246000fd5b6040805190810167ffffffffffffffff8111828210171561049557610495610459565b60405290565b604051601f8201601f1916810167ffffffffffffffff811182821017156104c4576104c4610459565b604052919050565b600082601f8301126104dd57600080fd5b6104e5610472565b8060408401858111156104f757600080fd5b845b818110156105115780358452602093840193016104f9565b509095945050505050565b600082601f83011261052d57600080fd5b610535610472565b80608084018581111561054757600080fd5b845b818110156105115761055b87826104cc565b8452602090930192604001610549565b6000806000806000610140868803121561058457600080fd5b61058d86610430565b945060208087013567ffffffffffffffff808211156105ab57600080fd5b818901915089601f8301126105bf57600080fd5b8135818111156105d1576105d1610459565b83810291506105e184830161049b565b818152918301840191848101908c8411156105fb57600080fd5b938501935b8385101561061957843582529385019390850190610600565b80995050505050505061062f87604088016104cc565b925061063e876080880161051c565b915061064e8761010088016104cc565b90509295509295909350565b600080600080600080610180878903121561067457600080fd5b61067d87610430565b955061068c88602089016104cc565b945061069b88606089016104cc565b93506106aa8860a0890161051c565b92506106ba8861012089016104cc565b915061016087013590509295509295509295565b6000602082840312156106e057600080fd5b5035919050565b600080600080608085870312156106fd57600080fd5b84359350602085013560ff8116811461071557600080fd5b93969395505050506040820135916060013590565b60e060020a634e487b7102600052603260045260246000fd5b60e060020a634e487b7102600052602160045260246000fdfea264697066735822122056202c4514a91e2e05fbb610cd0e7ff01ecfb406fd1c389bb5d7d1a3d037e85964736f6c634300080a0033",
  "immutableReferences": {},
  "source": "// SPDX-License-Identifier: MIT\npragma solidity ^0.8.0;\n\nimport \"./ECRecover.sol\";\n\ncontract HashingHelper {\n    // Solidity function to create the same hash as in the JavaScript code\n    function formatAndHashMessage(\n        bytes32 message\n    ) public pure returns (bytes32 hashedMessage) {\n        assembly {\n            mstore(0x00, \"\\x19Ethereum Signed Message:\\n32\")\n            mstore(0x1c, message)\n            hashedMessage := keccak256(0x00, 0x3c)\n        }\n    }\n\n    function hashRegisterArguments(\n        address sender,\n        uint[] memory _pubKey,\n        uint[2] memory proof_a,\n        uint[2][2] memory proof_b,\n        uint[2] memory proof_c\n    ) public pure returns (bytes32 hashedMessage) {\n        bytes32 senderInBytes = bytes20(sender);\n        uint _pubKey0 = _pubKey[0];\n        uint _pubKey1 = _pubKey[1];\n        uint proof_a0 = proof_a[0];\n        uint proof_a1 = proof_a[1];\n        uint proof_b00 = proof_b[0][0];\n        uint proof_b01 = proof_b[0][1];\n        uint proof_b10 = proof_b[1][0];\n        uint proof_b11 = proof_b[1][1];\n        uint proof_c0 = proof_c[0];\n        uint proof_c1 = proof_c[1];\n        assembly {\n            mstore(0x05E0, senderInBytes)\n            mstore(0x0600, _pubKey0)\n            mstore(0x0620, _pubKey1)\n            mstore(0x0640, proof_a0)\n            mstore(0x0660, proof_a1)\n            mstore(0x0680, proof_b00)\n            mstore(0x06A0, proof_b01)\n            mstore(0x06C0, proof_b10)\n            mstore(0x06E0, proof_b11)\n            mstore(0x0700, proof_c0)\n            mstore(0x0720, proof_c1)\n            hashedMessage := keccak256(0x05E0, 0x0740)\n        }\n    }\n\n    function hashVoteArguments(\n        address sender,\n        uint[2] memory _encryptedVote,\n        uint[2] memory proof_a,\n        uint[2][2] memory proof_b,\n        uint[2] memory proof_c,\n        uint _Idx\n    ) public pure returns (bytes32 hashedMessage) {\n        bytes32 senderInBytes = bytes20(sender);\n        uint _encryptedVote0 = _encryptedVote[0];\n        uint _encryptedVote1 = _encryptedVote[1];\n        uint proof_a0 = proof_a[0];\n        uint proof_a1 = proof_a[1];\n        uint proof_b00 = proof_b[0][0];\n        uint proof_b01 = proof_b[0][1];\n        uint proof_b10 = proof_b[1][0];\n        uint proof_b11 = proof_b[1][1];\n        uint proof_c0 = proof_c[0];\n        uint proof_c1 = proof_c[1];\n        assembly {\n            mstore(0x05E0, senderInBytes)\n            mstore(0x0600, _encryptedVote0)\n            mstore(0x0620, _encryptedVote1)\n            mstore(0x0640, proof_a0)\n            mstore(0x0660, proof_a1)\n            mstore(0x0680, proof_b00)\n            mstore(0x06A0, proof_b01)\n            mstore(0x06C0, proof_b10)\n            mstore(0x06E0, proof_b11)\n            mstore(0x0700, proof_c0)\n            mstore(0x0720, proof_c1)\n            mstore(0x0720, _Idx)\n            hashedMessage := keccak256(0x05E0, 0x0760)\n        }\n    }\n\n    function recoverSigner(\n        bytes32 hashedMessage,\n        uint8 v,\n        bytes32 r,\n        bytes32 s\n    ) public pure returns (address recovered) {\n        recovered = ECDSA.recover(hashedMessage, v, r, s);\n    }\n}\n",
  "sourcePath": "/Users/stanbar/code/zkVote/SmartContract/contracts/HashingHelper.sol",
  "compiler": {
    "name": "solc",
    "version": "0.8.10+commit.fc410830.Emscripten.clang"
  },
  "schemaVersion": "3.4.16",
  "updatedAt": "2023-11-18T23:19:18.283Z",
  "devdoc": {
    "kind": "dev",
    "methods": {},
    "version": 1
  },
  "userdoc": {
    "kind": "user",
    "methods": {},
    "version": 1
  }
}