{
  "contractName": "verifierZKSNARK",
  "abi": [
    {
      "inputs": [],
      "stateMutability": "nonpayable",
      "type": "constructor"
    },
    {
      "inputs": [],
      "name": "admin",
      "outputs": [
        {
          "internalType": "address",
          "name": "",
          "type": "address"
        }
      ],
      "stateMutability": "view",
      "type": "function",
      "constant": true
    },
    {
      "inputs": [
        {
          "internalType": "uint256",
          "name": "",
          "type": "uint256"
        }
      ],
      "name": "vk",
      "outputs": [
        {
          "components": [
            {
              "internalType": "uint256",
              "name": "X",
              "type": "uint256"
            },
            {
              "internalType": "uint256",
              "name": "Y",
              "type": "uint256"
            }
          ],
          "internalType": "struct G1Point",
          "name": "alpha1",
          "type": "tuple"
        },
        {
          "components": [
            {
              "internalType": "uint256[2]",
              "name": "X",
              "type": "uint256[2]"
            },
            {
              "internalType": "uint256[2]",
              "name": "Y",
              "type": "uint256[2]"
            }
          ],
          "internalType": "struct G2Point",
          "name": "beta2",
          "type": "tuple"
        },
        {
          "components": [
            {
              "internalType": "uint256[2]",
              "name": "X",
              "type": "uint256[2]"
            },
            {
              "internalType": "uint256[2]",
              "name": "Y",
              "type": "uint256[2]"
            }
          ],
          "internalType": "struct G2Point",
          "name": "gamma2",
          "type": "tuple"
        },
        {
          "components": [
            {
              "internalType": "uint256[2]",
              "name": "X",
              "type": "uint256[2]"
            },
            {
              "internalType": "uint256[2]",
              "name": "Y",
              "type": "uint256[2]"
            }
          ],
          "internalType": "struct G2Point",
          "name": "delta2",
          "type": "tuple"
        }
      ],
      "stateMutability": "view",
      "type": "function",
      "constant": true
    },
    {
      "inputs": [
        {
          "components": [
            {
              "components": [
                {
                  "internalType": "uint256",
                  "name": "X",
                  "type": "uint256"
                },
                {
                  "internalType": "uint256",
                  "name": "Y",
                  "type": "uint256"
                }
              ],
              "internalType": "struct G1Point",
              "name": "alpha1",
              "type": "tuple"
            },
            {
              "components": [
                {
                  "internalType": "uint256[2]",
                  "name": "X",
                  "type": "uint256[2]"
                },
                {
                  "internalType": "uint256[2]",
                  "name": "Y",
                  "type": "uint256[2]"
                }
              ],
              "internalType": "struct G2Point",
              "name": "beta2",
              "type": "tuple"
            },
            {
              "components": [
                {
                  "internalType": "uint256[2]",
                  "name": "X",
                  "type": "uint256[2]"
                },
                {
                  "internalType": "uint256[2]",
                  "name": "Y",
                  "type": "uint256[2]"
                }
              ],
              "internalType": "struct G2Point",
              "name": "gamma2",
              "type": "tuple"
            },
            {
              "components": [
                {
                  "internalType": "uint256[2]",
                  "name": "X",
                  "type": "uint256[2]"
                },
                {
                  "internalType": "uint256[2]",
                  "name": "Y",
                  "type": "uint256[2]"
                }
              ],
              "internalType": "struct G2Point",
              "name": "delta2",
              "type": "tuple"
            },
            {
              "components": [
                {
                  "internalType": "uint256",
                  "name": "X",
                  "type": "uint256"
                },
                {
                  "internalType": "uint256",
                  "name": "Y",
                  "type": "uint256"
                }
              ],
              "internalType": "struct G1Point[]",
              "name": "IC",
              "type": "tuple[]"
            }
          ],
          "internalType": "struct VerifyingKey",
          "name": "_vKey",
          "type": "tuple"
        },
        {
          "internalType": "uint256",
          "name": "index",
          "type": "uint256"
        }
      ],
      "name": "setVerifyingKey",
      "outputs": [],
      "stateMutability": "nonpayable",
      "type": "function"
    },
    {
      "inputs": [
        {
          "internalType": "uint256[2]",
          "name": "a",
          "type": "uint256[2]"
        },
        {
          "internalType": "uint256[2][2]",
          "name": "b",
          "type": "uint256[2][2]"
        },
        {
          "internalType": "uint256[2]",
          "name": "c",
          "type": "uint256[2]"
        },
        {
          "internalType": "uint256[]",
          "name": "input",
          "type": "uint256[]"
        },
        {
          "internalType": "uint256",
          "name": "vkIndex",
          "type": "uint256"
        }
      ],
      "name": "verifyProof",
      "outputs": [
        {
          "internalType": "bool",
          "name": "r",
          "type": "bool"
        }
      ],
      "stateMutability": "view",
      "type": "function",
      "constant": true
    }
  ],
  "bytecode": "0x608060405234801561001057600080fd5b5060008054600160a060020a03191633179055611706806100326000396000f3fe608060405234801561001057600080fd5b5060043610610068577c0100000000000000000000000000000000000000000000000000000000600035046345af8b20811461006d5780636743734c14610082578063b4e55fed146100aa578063f851a440146100cd575b600080fd5b61008061007b3660046112ec565b610112565b005b610095610090366004611463565b61049b565b60405190151581526020015b60405180910390f35b6100bd6100b8366004611526565b61053d565b6040516100a19493929190611585565b6000546100ed9073ffffffffffffffffffffffffffffffffffffffff1681565b60405173ffffffffffffffffffffffffffffffffffffffff90911681526020016100a1565b60005473ffffffffffffffffffffffffffffffffffffffff1633146101a65760405160e560020a62461bcd028152602060048201526024808201527f4f6e6c792061646d696e2063616e2073657420766572696669636174696f6e2060448201527f6b6579730000000000000000000000000000000000000000000000000000000060648201526084015b60405180910390fd5b8135600182600381106101bb576101bb6115c0565b600f0201556020820135600182600381106101d8576101d86115c0565b600f02016000016001018190555060005b60028110156103c357604083018160028110610207576102076115c0565b60200201356001836003811061021f5761021f6115c0565b600f0201600201600001826002811061023a5761023a6115c0565b0155608083018160028110610251576102516115c0565b602002013560018360038110610269576102696115c0565b600f02016002016002018260028110610284576102846115c0565b015560c08301816002811061029b5761029b6115c0565b6020020135600183600381106102b3576102b36115c0565b600f020160060160000182600281106102ce576102ce6115c0565b0155610100830181600281106102e6576102e66115c0565b6020020135600183600381106102fe576102fe6115c0565b600f02016006016002018260028110610319576103196115c0565b015561014083018160028110610331576103316115c0565b602002013560018360038110610349576103496115c0565b600f0201600a016000018260028110610364576103646115c0565b01556101808301816002811061037c5761037c6115c0565b602002013560018360038110610394576103946115c0565b600f0201600a0160020182600281106103af576103af6115c0565b0155806103bb816115f2565b9150506101e9565b5060005b6103d56101c084018461160d565b905081101561049657600182600381106103f1576103f16115c0565b600f0201600e01604051806040016040528085806101c00190610414919061160d565b85818110610424576104246115c0565b60400291909101358252506020016104406101c087018761160d565b85818110610450576104506115c0565b604002919091016020908101359092525082546001808201855560009485529382902083516002909202019081559101519101558061048e816115f2565b9150506103c7565b505050565b60006104a5611203565b604080518082018252885181526020808a01518183015290835281516080810183528851518184019081528951830151606083015281528251808401845289830180515182525183015181840152818301528382015281518083018352875181528782015191810191909152908201526105208482856106d4565b61052e576001915050610534565b60009150505b95945050505050565b6001816003811061054d57600080fd5b604080518082018252600f9290920292909201805482526001810154602083015282516080810180855292945090929091600280850192849290830191849182845b81548152602001906001019080831161058f57505050918352505060408051808201918290526020909201919060028481019182845b8154815260200190600101908083116105c5575050509190925250506040805160808101825292939291506006830190829081018260028282826020028201915b81548152602001906001019080831161060657505050918352505060408051808201918290526020909201919060028481019182845b81548152602001906001019080831161063c57505050919092525050604080516080810182529293929150600a830190829081018260028282826020028201915b81548152602001906001019080831161067d57505050918352505060408051808201918290526020909201919060028481019182845b8154815260200190600101908083116106b357505050505081525050905084565b60007f30644e72e131a029b85045b68181585d2833e84879b9709143e1f593f00000016001836003811061070a5761070a6115c0565b600f0201600e018054905085516001610723919061165d565b146107735760405160e560020a62461bcd02815260206004820152601260248201527f76657269666965722d6261642d696e7075740000000000000000000000000000604482015260640161019d565b604080518082019091526000808252602082018190525b86518110156108a157828782815181106107a6576107a66115c0565b6020026020010151106107fe5760405160e560020a62461bcd02815260206004820152601f60248201527f76657269666965722d6774652d736e61726b2d7363616c61722d6669656c6400604482015260640161019d565b61088d8261088860018860038110610818576108186115c0565b600f0201600e0184600161082c919061165d565b8154811061083c5761083c6115c0565b9060005260206000209060020201604051806040016040529081600082015481526020016001820154815250508a858151811061087b5761087b6115c0565b6020026020010151610b1d565b610bc7565b915080610899816115f2565b91505061078a565b5061090481600186600381106108b9576108b96115c0565b600f0201600e016000815481106108d2576108d26115c0565b906000526020600020906002020160405180604001604052908160008201548152602001600182015481525050610bc7565b9050610b006109168660000151610c6d565b86602001516001876003811061092e5761092e6115c0565b600f02016000016040518060400160405290816000820154815260200160018201548152505060018860038110610967576109676115c0565b604080516080810180835290936002600f9490940201830192849283019184919082845b81548152602001906001019080831161098b57505050918352505060408051808201918290526020909201919060028481019182845b8154815260200190600101908083116109c1575050505050815250508560018a600381106109f1576109f16115c0565b60408051608081018083529093600f93909302909201600601918391820190839060029082845b815481526020019060010190808311610a1857505050918352505060408051808201918290526020909201919060028481019182845b815481526020019060010190808311610a4e575050505050815250508b6040015160018c60038110610a8257610a826115c0565b60408051608081018083529093600f93909302909201600a01918391820190839060029082845b815481526020019060010190808311610aa957505050918352505060408051808201918290526020909201919060028481019182845b815481526020019060010190808311610adf57505050505081525050610d0c565b610b0f57600192505050610b16565b6000925050505b9392505050565b6040805180820190915260008082526020820152610b39611254565b835181526020808501519082015260408101839052600060608360808460076107d05a03fa9050808015610b6c57610b6e565bfe5b5080610bbf5760405160e560020a62461bcd02815260206004820152601260248201527f70616972696e672d6d756c2d6661696c65640000000000000000000000000000604482015260640161019d565b505092915050565b6040805180820190915260008082526020820152610be3611272565b8351815260208085015181830152835160408301528301516060808301919091526000908360c08460066107d05a03fa9050808015610b6c575080610bbf5760405160e560020a62461bcd02815260206004820152601260248201527f70616972696e672d6164642d6661696c65640000000000000000000000000000604482015260640161019d565b604080518082019091526000808252602082015281517f30644e72e131a029b85045b68181585d97816a916871ca8d3c208c16d87cfd4790158015610cb457506020830151155b15610cd45750506040805180820190915260008082526020820152919050565b604051806040016040528084600001518152602001828560200151610cf99190611675565b610d03908461169a565b90529392505050565b60408051600480825260a08201909252600091829190816020015b6040805180820190915260008082526020820152815260200190600190039081610d2757505060408051600480825260a0820190925291925060009190602082015b610d71611290565b815260200190600190039081610d695790505090508a82600081518110610d9a57610d9a6115c0565b60200260200101819052508882600181518110610db957610db96115c0565b60200260200101819052508682600281518110610dd857610dd86115c0565b60200260200101819052508482600381518110610df757610df76115c0565b60200260200101819052508981600081518110610e1657610e166115c0565b60200260200101819052508781600181518110610e3557610e356115c0565b60200260200101819052508581600281518110610e5457610e546115c0565b60200260200101819052508381600381518110610e7357610e736115c0565b6020026020010181905250610e888282610e97565b9b9a5050505050505050505050565b60008151835114610eed5760405160e560020a62461bcd02815260206004820152601660248201527f70616972696e672d6c656e677468732d6661696c656400000000000000000000604482015260640161019d565b82516000610efc8260066116b1565b905060008167ffffffffffffffff811115610f1957610f19611337565b604051908082528060200260200182016040528015610f42578160200160208202803683370190505b50905060005b8381101561117d57868181518110610f6257610f626115c0565b60200260200101516000015182826006610f7c91906116b1565b610f8790600061165d565b81518110610f9757610f976115c0565b602002602001018181525050868181518110610fb557610fb56115c0565b60200260200101516020015182826006610fcf91906116b1565b610fda90600161165d565b81518110610fea57610fea6115c0565b602002602001018181525050858181518110611008576110086115c0565b60209081029190910101515151826110218360066116b1565b61102c90600261165d565b8151811061103c5761103c6115c0565b60200260200101818152505085818151811061105a5761105a6115c0565b602090810291909101810151510151826110758360066116b1565b61108090600361165d565b81518110611090576110906115c0565b6020026020010181815250508581815181106110ae576110ae6115c0565b6020026020010151602001516000600281106110cc576110cc6115c0565b6020020151826110dd8360066116b1565b6110e890600461165d565b815181106110f8576110f86115c0565b602002602001018181525050858181518110611116576111166115c0565b602002602001015160200151600160028110611134576111346115c0565b6020020151826111458360066116b1565b61115090600561165d565b81518110611160576111606115c0565b602090810291909101015280611175816115f2565b915050610f48565b506111866112b0565b6000602082602086026020860160086107d05a03fa9050808015610b6c5750806111f55760405160e560020a62461bcd02815260206004820152601560248201527f70616972696e672d6f70636f64652d6661696c65640000000000000000000000604482015260640161019d565b505115159695505050505050565b6040805160a08101909152600060608201818152608083019190915281526020810161122d611290565b815260200161124f604051806040016040528060008152602001600081525090565b905290565b60405180606001604052806003906020820280368337509192915050565b60405180608001604052806004906020820280368337509192915050565b60405180604001604052806112a36112ce565b815260200161124f6112ce565b60405180602001604052806001906020820280368337509192915050565b60405180604001604052806002906020820280368337509192915050565b600080604083850312156112ff57600080fd5b823567ffffffffffffffff81111561131657600080fd5b83016101e0818603121561132957600080fd5b946020939093013593505050565b60e060020a634e487b7102600052604160045260246000fd5b6040805190810167ffffffffffffffff8111828210171561137357611373611337565b60405290565b600082601f83011261138a57600080fd5b611392611350565b8060408401858111156113a457600080fd5b845b818110156113be5780358452602093840193016113a6565b509095945050505050565b600082601f8301126113da57600080fd5b8135602067ffffffffffffffff808311156113f7576113f7611337565b818302604051601f19603f8301168101818110848211171561141b5761141b611337565b60405293845285810183019383810192508785111561143957600080fd5b83870191505b848210156114585781358352918301919083019061143f565b979650505050505050565b6000806000806000610140868803121561147c57600080fd5b6114868787611379565b9450604087605f88011261149957600080fd5b6114a1611350565b8060c089018a8111156114b357600080fd5b838a015b818110156114d8576114c98c82611379565b845260209093019284016114b7565b508197506114e68b82611379565b96505050505061010086013567ffffffffffffffff81111561150757600080fd5b611513888289016113c9565b9598949750929561012001359392505050565b60006020828403121561153857600080fd5b5035919050565b8060005b6002811015611562578151845260209384019390910190600101611543565b50505050565b61157382825161153f565b6020810151610496604084018261153f565b84518152602080860151908201526101c081016115a56040830186611568565b6115b260c0830185611568565b610534610140830184611568565b60e060020a634e487b7102600052603260045260246000fd5b60e060020a634e487b7102600052601160045260246000fd5b6000600019821415611606576116066115d9565b5060010190565b6000808335601e1984360301811261162457600080fd5b83018035915067ffffffffffffffff82111561163f57600080fd5b602001915060408102360382131561165657600080fd5b9250929050565b60008219821115611670576116706115d9565b500190565b6000826116955760e060020a634e487b7102600052601260045260246000fd5b500690565b6000828210156116ac576116ac6115d9565b500390565b60008160001904831182151516156116cb576116cb6115d9565b50029056fea264697066735822122090560704eb62f4c17a323ea242450783a7df8c51e7cbbb557436b44cd3e62e4664736f6c634300080a0033",
  "immutableReferences": {},
  "source": "// SPDX-License-Identifier: UNLICENSED\npragma solidity ^0.8.0;\nimport {Pairing, G1Point, G2Point, VerifyingKey, Proof} from './pairing.sol';\ncontract verifierZKSNARK {\n    using Pairing for *;\n    address public admin;\n    VerifyingKey[3] public vk;\n\n    constructor(){\n        admin = msg.sender;\n    }\n\n    function setVerifyingKey(VerifyingKey calldata _vKey, uint index) external {\n        require(msg.sender==admin,\"Only admin can set verification keys\");\n        // Alpha\n        vk[index].alpha1.X = _vKey.alpha1.X;\n        vk[index].alpha1.Y = _vKey.alpha1.Y;\n        for (uint j = 0; j < 2; j++) {\n            // Beta\n            vk[index].beta2.X[j] = _vKey.beta2.X[j];\n            vk[index].beta2.Y[j] = _vKey.beta2.Y[j];\n            // Gamma\n            vk[index].gamma2.X[j] = _vKey.gamma2.X[j];\n            vk[index].gamma2.Y[j] = _vKey.gamma2.Y[j];\n            // Delta\n            vk[index].delta2.X[j] = _vKey.delta2.X[j];\n            vk[index].delta2.Y[j] = _vKey.delta2.Y[j];\n        }\n        for (uint j = 0; j < _vKey.IC.length; j++) {\n            // IC\n            vk[index].IC.push(G1Point(_vKey.IC[j].X, _vKey.IC[j].Y));\n        }\n    }\n\n    // function verifyingKey() internal pure returns (VerifyingKey memory vk) {    \n    // }\n\n    function verify(uint[] memory input, Proof memory proof, uint vkIndex) internal view returns (uint) {\n        uint256 snark_scalar_field = 21888242871839275222246405745257275088548364400416034343698204186575808495617;\n        // VerifyingKey memory vk = verifyingKey();\n        require(input.length + 1 == vk[vkIndex].IC.length,\"verifier-bad-input\");\n        // Compute the linear combination vk_x\n        G1Point memory vk_x = G1Point(0, 0);\n        for (uint i = 0; i < input.length; i++) {\n            require(input[i] < snark_scalar_field,\"verifier-gte-snark-scalar-field\");\n            vk_x = Pairing.addition(vk_x, Pairing.scalar_mul(vk[vkIndex].IC[i + 1], input[i]));\n        }\n        vk_x = Pairing.addition(vk_x, vk[vkIndex].IC[0]);\n        if (!Pairing.pairingProd4(\n            Pairing.negate(proof.A), proof.B,\n            vk[vkIndex].alpha1, vk[vkIndex].beta2,\n            vk_x, vk[vkIndex].gamma2,\n            proof.C, vk[vkIndex].delta2\n        )) return 1;\n        return 0;\n    }\n    /// @return r  bool true if proof is valid\n    function verifyProof(\n            uint[2] memory a,\n            uint[2][2] memory b,\n            uint[2] memory c,\n            uint[] memory input,\n            uint vkIndex\n        ) public view returns (bool r) {\n        Proof memory proof;\n        proof.A = G1Point(a[0], a[1]);\n        proof.B = G2Point([b[0][0], b[0][1]], [b[1][0], b[1][1]]);\n        proof.C = G1Point(c[0], c[1]);\n    \n        if (verify(input, proof, vkIndex) == 0) {\n            return true;\n        } else {\n            return false;\n        }\n    }\n}\n",
  "sourcePath": "/Users/stanbar/code/zkVote/SmartContract/contracts/verifier_zkSNARK.sol",
  "compiler": {
    "name": "solc",
    "version": "0.8.10+commit.fc410830.Emscripten.clang"
  },
  "schemaVersion": "3.4.16",
  "updatedAt": "2023-11-18T12:30:33.908Z",
  "networkType": "ethereum",
  "devdoc": {
    "kind": "dev",
    "methods": {
      "verifyProof(uint256[2],uint256[2][2],uint256[2],uint256[],uint256)": {
        "returns": {
          "r": " bool true if proof is valid"
        }
      }
    },
    "version": 1
  },
  "userdoc": {
    "kind": "user",
    "methods": {},
    "version": 1
  }
}