{
  "contractName": "verifierMerkleTree",
  "abi": [
    {
      "inputs": [
        {
          "internalType": "bytes32[]",
          "name": "proof",
          "type": "bytes32[]"
        },
        {
          "internalType": "bytes32",
          "name": "root",
          "type": "bytes32"
        },
        {
          "internalType": "bytes32",
          "name": "leaf",
          "type": "bytes32"
        }
      ],
      "name": "verifyProof",
      "outputs": [
        {
          "internalType": "bool",
          "name": "",
          "type": "bool"
        }
      ],
      "stateMutability": "pure",
      "type": "function",
      "constant": true
    }
  ],
  "bytecode": "0x608060405234801561001057600080fd5b50610284806100206000396000f3fe608060405234801561001057600080fd5b5060043610610047577c010000000000000000000000000000000000000000000000000000000060003504634bc935d7811461004c575b600080fd5b61005f61005a36600461013c565b610073565b604051901515815260200160405180910390f35b600081815b855181101561011857600086828151811061009557610095610209565b60200260200101519050808310156100d8576040805160208101859052908101829052606001604051602081830303815290604052805190602001209250610105565b60408051602081018390529081018490526060016040516020818303038152906040528051906020012092505b508061011081610222565b915050610078565b509092149392505050565b60e060020a634e487b7102600052604160045260246000fd5b60008060006060848603121561015157600080fd5b833567ffffffffffffffff8082111561016957600080fd5b818601915086601f83011261017d57600080fd5b813560208282111561019157610191610123565b808202604051601f19603f830116810181811086821117156101b5576101b5610123565b60405292835281830193508481018201928a8411156101d357600080fd5b948201945b838610156101f1578535855294820194938201936101d8565b9a918901359950506040909701359695505050505050565b60e060020a634e487b7102600052603260045260246000fd5b60006000198214156102475760e060020a634e487b7102600052601160045260246000fd5b506001019056fea2646970667358221220ebd38f3d99b243f2d58a8434e72e7f956b283137603ab9dd27213e424e314d7c64736f6c634300080a0033",
  "immutableReferences": {},
  "source": "// SPDX-License-Identifier: UNLICENSED\npragma solidity ^0.8.0;\n\ncontract verifierMerkleTree {\n    \n    function verifyProof(bytes32[] memory proof, bytes32 root, bytes32 leaf) public pure returns (bool) {\n        bytes32 computedHash = leaf;\n        for (uint256 i = 0; i < proof.length; i++) {\n            bytes32 proofElement = proof[i];\n            if (computedHash < proofElement) {\n                computedHash = keccak256(abi.encodePacked(computedHash, proofElement));\n            } else {\n                computedHash = keccak256(abi.encodePacked(proofElement, computedHash));\n            }\n        }\n        return computedHash == root;\n    }\n}",
  "sourcePath": "/Users/stanbar/code/zkVote/SmartContract/contracts/verifier_MerkleTree.sol",
  "compiler": {
    "name": "solc",
    "version": "0.8.10+commit.fc410830.Emscripten.clang"
  },
  "schemaVersion": "3.4.16",
  "updatedAt": "2023-11-18T12:30:33.904Z",
  "networkType": "ethereum",
  "devdoc": {
    "kind": "dev",
    "methods": {},
    "version": 1
  },
  "userdoc": {
    "kind": "user",
    "methods": {},
    "version": 1
  }
}